{
  "contractName": "DogDiceDAOGamev2_Test",
  "abi": [
    {
      "anonymous": false,
      "inputs": [
        {
          "indexed": false,
          "internalType": "string",
          "name": "description",
          "type": "string"
        }
      ],
      "name": "LogNewProvableQuery",
      "type": "event"
    },
    {
      "anonymous": false,
      "inputs": [
        {
          "indexed": false,
          "internalType": "address",
          "name": "account",
          "type": "address"
        }
      ],
      "name": "Paused",
      "type": "event"
    },
    {
      "anonymous": false,
      "inputs": [
        {
          "indexed": false,
          "internalType": "address",
          "name": "account",
          "type": "address"
        }
      ],
      "name": "Unpaused",
      "type": "event"
    },
    {
      "anonymous": false,
      "inputs": [
        {
          "indexed": false,
          "internalType": "uint256",
          "name": "randomNumber",
          "type": "uint256"
        }
      ],
      "name": "generatedRandomNumber",
      "type": "event"
    },
    {
      "anonymous": false,
      "inputs": [
        {
          "indexed": false,
          "internalType": "address",
          "name": "player",
          "type": "address"
        },
        {
          "indexed": false,
          "internalType": "bool",
          "name": "won",
          "type": "bool"
        },
        {
          "indexed": false,
          "internalType": "uint256",
          "name": "playerBalance",
          "type": "uint256"
        }
      ],
      "name": "resultOutcome",
      "type": "event"
    },
    {
      "inputs": [],
      "name": "paused",
      "outputs": [
        {
          "internalType": "bool",
          "name": "",
          "type": "bool"
        }
      ],
      "stateMutability": "view",
      "type": "function",
      "constant": true
    },
    {
      "inputs": [],
      "name": "initialize",
      "outputs": [],
      "stateMutability": "nonpayable",
      "type": "function"
    },
    {
      "inputs": [
        {
          "internalType": "bytes32",
          "name": "_myid",
          "type": "bytes32"
        },
        {
          "internalType": "string",
          "name": "_result",
          "type": "string"
        }
      ],
      "name": "__callback",
      "outputs": [],
      "stateMutability": "nonpayable",
      "type": "function"
    },
    {
      "inputs": [
        {
          "internalType": "bytes32",
          "name": "_queryId",
          "type": "bytes32"
        },
        {
          "internalType": "string",
          "name": "_result",
          "type": "string"
        },
        {
          "internalType": "bytes",
          "name": "_proof",
          "type": "bytes"
        }
      ],
      "name": "__callback",
      "outputs": [],
      "stateMutability": "nonpayable",
      "type": "function"
    },
    {
      "inputs": [],
      "name": "upgradeTest",
      "outputs": [
        {
          "internalType": "string",
          "name": "",
          "type": "string"
        }
      ],
      "stateMutability": "pure",
      "type": "function",
      "constant": true
    },
    {
      "inputs": [
        {
          "internalType": "address",
          "name": "_player",
          "type": "address"
        },
        {
          "internalType": "uint256",
          "name": "_stake",
          "type": "uint256"
        }
      ],
      "name": "updateRandomNumber",
      "outputs": [],
      "stateMutability": "payable",
      "type": "function",
      "payable": true
    },
    {
      "inputs": [
        {
          "internalType": "uint256",
          "name": "_stake",
          "type": "uint256"
        }
      ],
      "name": "playGame",
      "outputs": [],
      "stateMutability": "payable",
      "type": "function",
      "payable": true
    },
    {
      "inputs": [],
      "name": "depositEth",
      "outputs": [],
      "stateMutability": "payable",
      "type": "function",
      "payable": true
    },
    {
      "inputs": [
        {
          "internalType": "uint256",
          "name": "_withdrawalAmount",
          "type": "uint256"
        }
      ],
      "name": "withdrawEth",
      "outputs": [],
      "stateMutability": "nonpayable",
      "type": "function"
    },
    {
      "inputs": [],
      "name": "getBalance",
      "outputs": [
        {
          "internalType": "uint256",
          "name": "",
          "type": "uint256"
        }
      ],
      "stateMutability": "view",
      "type": "function",
      "constant": true
    }
  ],
  "bytecode": "0x608060405234801561001057600080fd5b50613290806100206000396000f3fe6080604052600436106100915760003560e01c80635873533d116100595780635873533d146103965780635c975abb146103c45780638129fc1c146103f1578063a323c57b14610408578063c311d0491461045657610091565b806312065fe01461009657806327dc297e146100c157806338bbfa50146101935780633d20b15c146102fc578063439370b11461038c575b600080fd5b3480156100a257600080fd5b506100ab610491565b6040518082815260200191505060405180910390f35b3480156100cd57600080fd5b50610191600480360360408110156100e457600080fd5b81019080803590602001909291908035906020019064010000000081111561010b57600080fd5b82018360208201111561011d57600080fd5b8035906020019184600183028401116401000000008311171561013f57600080fd5b91908080601f016020809104026020016040519081016040528093929190818152602001838380828437600081840152601f19601f8201169050808301925050505050505091929192905050506104d8565b005b34801561019f57600080fd5b506102fa600480360360608110156101b657600080fd5b8101908080359060200190929190803590602001906401000000008111156101dd57600080fd5b8201836020820111156101ef57600080fd5b8035906020019184600183028401116401000000008311171561021157600080fd5b91908080601f016020809104026020016040519081016040528093929190818152602001838380828437600081840152601f19601f8201169050808301925050505050505091929192908035906020019064010000000081111561027457600080fd5b82018360208201111561028657600080fd5b803590602001918460018302840111640100000000831117156102a857600080fd5b91908080601f016020809104026020016040519081016040528093929190818152602001838380828437600081840152601f19601f820116905080830192505050505050509192919290505050610532565b005b34801561030857600080fd5b506103116107b2565b6040518080602001828103825283818151815260200191508051906020019080838360005b83811015610351578082015181840152602081019050610336565b50505050905090810190601f16801561037e5780820380516001836020036101000a031916815260200191505b509250505060405180910390f35b6103946107ef565b005b6103c2600480360360208110156103ac57600080fd5b81019080803590602001909291905050506108b4565b005b3480156103d057600080fd5b506103d9610a64565b60405180821515815260200191505060405180910390f35b3480156103fd57600080fd5b50610406610a7b565b005b6104546004803603604081101561041e57600080fd5b81019080803573ffffffffffffffffffffffffffffffffffffffff16906020019092919080359060200190929190505050610d48565b005b34801561046257600080fd5b5061048f6004803603602081101561047957600080fd5b8101908080359060200190929190505050610fca565b005b6000606f60003373ffffffffffffffffffffffffffffffffffffffff1673ffffffffffffffffffffffffffffffffffffffff16815260200190815260200160002054905090565b61052e8282600067ffffffffffffffff811180156104f557600080fd5b506040519080825280601f01601f1916602001820160405280156105285781602001600182028036833780820191505090505b50610532565b5050565b61053a611061565b73ffffffffffffffffffffffffffffffffffffffff163373ffffffffffffffffffffffffffffffffffffffff161461057157600080fd5b606a60405180807f6c617465737452616e646f6d4e756d62657200000000000000000000000000008152506012019050908152602001604051809103902054606a60405180807f70726576696f757352616e646f6d4e756d6265720000000000000000000000008152506014019050908152602001604051809103902081905550606a60405180807f72616e646f6d4e756d6265724365696c696e67000000000000000000000000008152506013019050908152602001604051809103902054826040516020018082805190602001908083835b602083106106685780518252602082019150602081019050602083039250610645565b6001836020036101000a0380198251168184511680821785525050505050509050019150506040516020818303038152906040528051906020012060001c816106ad57fe5b06606a60405180807f6c617465737452616e646f6d4e756d626572000000000000000000000000000081525060120190509081526020016040518091039020819055507fc13d60fe9dffdb6908d2d446cd18134373a51db0738ee04f296eeb9128121cbc606a60405180807f6c617465737452616e646f6d4e756d626572000000000000000000000000000081525060120190509081526020016040518091039020546040518082815260200191505060405180910390a16107ad606a60405180807f6c617465737452616e646f6d4e756d6265720000000000000000000000000000815250601201905090815260200160405180910390205484611383565b505050565b60606040518060400160405280601481526020017f74657374696e6720746865207570677261646521000000000000000000000000815250905090565b60003411610865576040517f08c379a00000000000000000000000000000000000000000000000000000000081526004018080602001828103825260188152602001807f4e6f6e2d7a65726f206465706f736974206e65656465642e000000000000000081525060200191505060405180910390fd5b34606f60003373ffffffffffffffffffffffffffffffffffffffff1673ffffffffffffffffffffffffffffffffffffffff16815260200190815260200160002060008282540192505081905550565b606f60003373ffffffffffffffffffffffffffffffffffffffff1673ffffffffffffffffffffffffffffffffffffffff16815260200190815260200160002054811115610969576040517f08c379a00000000000000000000000000000000000000000000000000000000081526004018080602001828103825260158152602001807f496e73756666696369656e742062616c616e636521000000000000000000000081525060200191505060405180910390fd5b80606f60003373ffffffffffffffffffffffffffffffffffffffff1673ffffffffffffffffffffffffffffffffffffffff168152602001908152602001600020600082825403925050819055503481019050606a60405180807f4741535f464f525f43414c4c4241434b2000000000000000000000000000000081525060110190509081526020016040518091039020548103905060008111610a57576040517f08c379a000000000000000000000000000000000000000000000000000000000815260040180806020018281038252602c81526020018061322f602c913960400191505060405180910390fd5b610a613382610d48565b50565b6000603360009054906101000a900460ff16905090565b600060019054906101000a900460ff1680610a9a5750610a996114b0565b5b80610ab0575060008054906101000a900460ff16155b610b05576040517f08c379a000000000000000000000000000000000000000000000000000000000815260040180806020018281038252602e815260200180613201602e913960400191505060405180910390fd5b60008060019054906101000a900460ff161590508015610b55576001600060016101000a81548160ff02191690831515021790555060016000806101000a81548160ff0219169083151502179055505b33607460006101000a81548173ffffffffffffffffffffffffffffffffffffffff021916908373ffffffffffffffffffffffffffffffffffffffff16021790555033606b60405180807f696e697469616c697a6572000000000000000000000000000000000000000000815250600b019050908152602001604051809103902060006101000a81548173ffffffffffffffffffffffffffffffffffffffff021916908373ffffffffffffffffffffffffffffffffffffffff1602179055506000606a60405180807f6c617465737452616e646f6d4e756d626572000000000000000000000000000081525060120190509081526020016040518091039020819055506000606a60405180807f70726576696f757352616e646f6d4e756d6265720000000000000000000000008152506014019050908152602001604051809103902081905550610100606a60405180807f4d41585f494e545f46524f4d5f4259544500000000000000000000000000000081525060110190509081526020016040518091039020819055506001606a60405180807f4e554d5f52414e444f4d5f42595445535f524551554553544544000000000000815250601a0190509081526020016040518091039020819055508015610d455760008060016101000a81548160ff0219169083151502179055505b50565b6000606a60405180807f51554552595f455845435554494f4e5f44454c41590000000000000000000000815250601501905090815260200160405180910390208190555062030d40606a60405180807f4741535f464f525f43414c4c4241434b2000000000000000000000000000000081525060110190509081526020016040518091039020819055506000610e99606a60405180807f51554552595f455845435554494f4e5f44454c415900000000000000000000008152506015019050908152602001604051809103902054606a60405180807f4e554d5f52414e444f4d5f42595445535f524551554553544544000000000000815250601a019050908152602001604051809103902054606a60405180807f4741535f464f525f43414c4c4241434b2000000000000000000000000000000081525060110190509081526020016040518091039020546114c7565b9050826071600083815260200190815260200160002060006101000a81548173ffffffffffffffffffffffffffffffffffffffff021916908373ffffffffffffffffffffffffffffffffffffffff16021790555081607260008381526020019081526020016000208190555060006073600083815260200190815260200160002060006101000a81548160ff02191690831515021790555060006070600083815260200190815260200160002060006101000a81548160ff0219169083151502179055507fc4dc360d0a9c0677a3379ae0a3d81e887f761e65fdf3d7e00859d1bcd3c473896040518080602001828103825260168152602001807f50726f7661626c652051756572792073656e742e2e2e0000000000000000000081525060200191505060405180910390a1505050565b80606f60003373ffffffffffffffffffffffffffffffffffffffff1673ffffffffffffffffffffffffffffffffffffffff168152602001908152602001600020600082825403925050819055503373ffffffffffffffffffffffffffffffffffffffff166108fc829081150290604051600060405180830381858888f1935050505015801561105d573d6000803e3d6000fd5b5050565b60008073ffffffffffffffffffffffffffffffffffffffff16606660009054906101000a900473ffffffffffffffffffffffffffffffffffffffff1673ffffffffffffffffffffffffffffffffffffffff1614806110e9575060006110e7606660009054906101000a900473ffffffffffffffffffffffffffffffffffffffff16611aec565b145b156110fa576110f86000611af7565b505b606660009054906101000a900473ffffffffffffffffffffffffffffffffffffffff1673ffffffffffffffffffffffffffffffffffffffff166338cc48316040518163ffffffff1660e01b8152600401602060405180830381600087803b15801561116457600080fd5b505af1158015611178573d6000803e3d6000fd5b505050506040513d602081101561118e57600080fd5b810190808051906020019092919050505073ffffffffffffffffffffffffffffffffffffffff16606560009054906101000a900473ffffffffffffffffffffffffffffffffffffffff1673ffffffffffffffffffffffffffffffffffffffff16146112d957606660009054906101000a900473ffffffffffffffffffffffffffffffffffffffff1673ffffffffffffffffffffffffffffffffffffffff166338cc48316040518163ffffffff1660e01b8152600401602060405180830381600087803b15801561125d57600080fd5b505af1158015611271573d6000803e3d6000fd5b505050506040513d602081101561128757600080fd5b8101908080519060200190929190505050606560006101000a81548173ffffffffffffffffffffffffffffffffffffffff021916908373ffffffffffffffffffffffffffffffffffffffff1602179055505b606560009054906101000a900473ffffffffffffffffffffffffffffffffffffffff1673ffffffffffffffffffffffffffffffffffffffff1663c281d19e6040518163ffffffff1660e01b8152600401602060405180830381600087803b15801561134357600080fd5b505af1158015611357573d6000803e3d6000fd5b505050506040513d602081101561136d57600080fd5b8101908080519060200190929190505050905090565b60016070600083815260200190815260200160002060006101000a81548160ff02191690831515021790555060006113ba83611b08565b90508080156113e657506070600083815260200190815260200160002060009054906101000a900460ff165b156114ab5760016073600084815260200190815260200160002060006101000a81548160ff0219169083151502179055506072600083815260200190815260200160002054606f60006071600086815260200190815260200160002060009054906101000a900473ffffffffffffffffffffffffffffffffffffffff1673ffffffffffffffffffffffffffffffffffffffff1673ffffffffffffffffffffffffffffffffffffffff168152602001908152602001600020600082825401925050819055505b505050565b6000803090506000813b9050600081149250505090565b600080831180156114d9575060208311155b6114e257600080fd5b600a840293506060600167ffffffffffffffff8111801561150257600080fd5b506040519080825280601f01601f1916602001820160405280156115355781602001600182028036833780820191505090505b5090508360f81b8160008151811061154957fe5b60200101907effffffffffffffffffffffffffffffffffffffffffffffffffffffffffffff1916908160001a9053506060602067ffffffffffffffff8111801561159257600080fd5b506040519080825280601f01601f1916602001820160405280156115c55781602001600182028036833780820191505090505b5090506060602067ffffffffffffffff811180156115e257600080fd5b506040519080825280601f01601f1916602001820160405280156116155781602001600182028036833780820191505090505b5090506000611622611b24565b9050602083524241186001430340186020840152602082528060208301526060602067ffffffffffffffff8111801561165a57600080fd5b506040519080825280601f01601f19166020018201604052801561168d5781602001600182028036833780820191505090505b5090508860208201526060600867ffffffffffffffff811180156116b057600080fd5b506040519080825280601f01601f1916602001820160405280156116e35781602001600182028036833780820191505090505b5090506116f68260186008846000611e44565b506116ff613122565b604051806080016040528087815260200188815260200186815260200184815250905060006117646040518060400160405280600681526020017f72616e646f6d0000000000000000000000000000000000000000000000000000815250838c611ea3565b90506060600867ffffffffffffffff8111801561178057600080fd5b506040519080825280601f01601f1916602001820160405280156117b35781602001600182028036833780820191505090505b50905060208401517f0100000000000000000000000000000000000000000000000000000000000000810460278301537e01000000000000000000000000000000000000000000000000000000000000810460268301537d010000000000000000000000000000000000000000000000000000000000810460258301537c0100000000000000000000000000000000000000000000000000000000810460248301537b01000000000000000000000000000000000000000000000000000000810460238301537a010000000000000000000000000000000000000000000000000000810460228301537901000000000000000000000000000000000000000000000000008104602183015378010000000000000000000000000000000000000000000000008104602083015350611ad98282856001600481106118f257fe5b602002015160028760006004811061190657fe5b60200201516040518082805190602001908083835b6020831061193e578051825260208201915060208101905060208303925061191b565b6001836020036101000a038019825116818451168082178552505050505050905001915050602060405180830381855afa158015611980573d6000803e3d6000fd5b5050506040513d602081101561199557600080fd5b8101908080519060200190929190505050876002600481106119b357fe5b60200201516040516020018085805190602001908083835b602083106119ee57805182526020820191506020810190506020830392506119cb565b6001836020036101000a03801982511681845116808217855250505050505090500184805190602001908083835b60208310611a3f5780518252602082019150602081019050602083039250611a1c565b6001836020036101000a03801982511681845116808217855250505050505090500183815260200182805190602001908083835b60208310611a965780518252602082019150602081019050602083039250611a73565b6001836020036101000a03801982511681845116808217855250505050505090500194505050505060405160208183030381529060405280519060200120612229565b8199505050505050505050509392505050565b6000813b9050919050565b6000611b01612245565b9050919050565b600080600160028481611b1757fe5b0614905080915050919050565b60008073ffffffffffffffffffffffffffffffffffffffff16606660009054906101000a900473ffffffffffffffffffffffffffffffffffffffff1673ffffffffffffffffffffffffffffffffffffffff161480611bac57506000611baa606660009054906101000a900473ffffffffffffffffffffffffffffffffffffffff16611aec565b145b15611bbd57611bbb6000611af7565b505b606660009054906101000a900473ffffffffffffffffffffffffffffffffffffffff1673ffffffffffffffffffffffffffffffffffffffff166338cc48316040518163ffffffff1660e01b8152600401602060405180830381600087803b158015611c2757600080fd5b505af1158015611c3b573d6000803e3d6000fd5b505050506040513d6020811015611c5157600080fd5b810190808051906020019092919050505073ffffffffffffffffffffffffffffffffffffffff16606560009054906101000a900473ffffffffffffffffffffffffffffffffffffffff1673ffffffffffffffffffffffffffffffffffffffff1614611d9c57606660009054906101000a900473ffffffffffffffffffffffffffffffffffffffff1673ffffffffffffffffffffffffffffffffffffffff166338cc48316040518163ffffffff1660e01b8152600401602060405180830381600087803b158015611d2057600080fd5b505af1158015611d34573d6000803e3d6000fd5b505050506040513d6020811015611d4a57600080fd5b8101908080519060200190929190505050606560006101000a81548173ffffffffffffffffffffffffffffffffffffffff021916908373ffffffffffffffffffffffffffffffffffffffff1602179055505b606560009054906101000a900473ffffffffffffffffffffffffffffffffffffffff1673ffffffffffffffffffffffffffffffffffffffff1663abaa5f3e6040518163ffffffff1660e01b815260040160206040518083038186803b158015611e0457600080fd5b505afa158015611e18573d6000803e3d6000fd5b505050506040513d6020811015611e2e57600080fd5b8101908080519060200190929190505050905090565b6060600082850190508084511015611e5b57600080fd5b600086602001905060008460200190505b868860200101821015611e945781890151808288015250602082019150602081019050611e6c565b85935050505095945050505050565b60008073ffffffffffffffffffffffffffffffffffffffff16606660009054906101000a900473ffffffffffffffffffffffffffffffffffffffff1673ffffffffffffffffffffffffffffffffffffffff161480611f2b57506000611f29606660009054906101000a900473ffffffffffffffffffffffffffffffffffffffff16611aec565b145b15611f3c57611f3a6000611af7565b505b606660009054906101000a900473ffffffffffffffffffffffffffffffffffffffff1673ffffffffffffffffffffffffffffffffffffffff166338cc48316040518163ffffffff1660e01b8152600401602060405180830381600087803b158015611fa657600080fd5b505af1158015611fba573d6000803e3d6000fd5b505050506040513d6020811015611fd057600080fd5b810190808051906020019092919050505073ffffffffffffffffffffffffffffffffffffffff16606560009054906101000a900473ffffffffffffffffffffffffffffffffffffffff1673ffffffffffffffffffffffffffffffffffffffff161461211b57606660009054906101000a900473ffffffffffffffffffffffffffffffffffffffff1673ffffffffffffffffffffffffffffffffffffffff166338cc48316040518163ffffffff1660e01b8152600401602060405180830381600087803b15801561209f57600080fd5b505af11580156120b3573d6000803e3d6000fd5b505050506040513d60208110156120c957600080fd5b8101908080519060200190929190505050606560006101000a81548173ffffffffffffffffffffffffffffffffffffffff021916908373ffffffffffffffffffffffffffffffffffffffff1602179055505b6060600467ffffffffffffffff8111801561213557600080fd5b5060405190808252806020026020018201604052801561216957816020015b60608152602001906001900390816121545790505b5090508360006004811061217957fe5b60200201518160008151811061218b57fe5b6020026020010181905250836001600481106121a357fe5b6020020151816001815181106121b557fe5b6020026020010181905250836002600481106121cd57fe5b6020020151816002815181106121df57fe5b6020026020010181905250836003600481106121f757fe5b60200201518160038151811061220957fe5b602002602001018190525061221f85828561279c565b9150509392505050565b8060686000848152602001908152602001600020819055505050565b600080612265731d3b2638a7cc9f2cb3d298a3da7a90b67e5506ed611aec565b111561230757731d3b2638a7cc9f2cb3d298a3da7a90b67e5506ed606660006101000a81548173ffffffffffffffffffffffffffffffffffffffff021916908373ffffffffffffffffffffffffffffffffffffffff1602179055506122fe6040518060400160405280600b81526020017f6574685f6d61696e6e6574000000000000000000000000000000000000000000815250612d02565b60019050612799565b600061232673c03a2615d5efaf5f49f60b7bb6583eaec212fdf1611aec565b11156123c85773c03a2615d5efaf5f49f60b7bb6583eaec212fdf1606660006101000a81548173ffffffffffffffffffffffffffffffffffffffff021916908373ffffffffffffffffffffffffffffffffffffffff1602179055506123bf6040518060400160405280600c81526020017f6574685f726f707374656e330000000000000000000000000000000000000000815250612d02565b60019050612799565b60006123e773b7a07bcf2ba2f2703b24c0691b5278999c59ac7e611aec565b11156124895773b7a07bcf2ba2f2703b24c0691b5278999c59ac7e606660006101000a81548173ffffffffffffffffffffffffffffffffffffffff021916908373ffffffffffffffffffffffffffffffffffffffff1602179055506124806040518060400160405280600981526020017f6574685f6b6f76616e0000000000000000000000000000000000000000000000815250612d02565b60019050612799565b60006124a873146500cfd35b22e4a392fe0adc06de1a1368ed48611aec565b111561254a5773146500cfd35b22e4a392fe0adc06de1a1368ed48606660006101000a81548173ffffffffffffffffffffffffffffffffffffffff021916908373ffffffffffffffffffffffffffffffffffffffff1602179055506125416040518060400160405280600b81526020017f6574685f72696e6b656279000000000000000000000000000000000000000000815250612d02565b60019050612799565b600061256973a2998efd205fb9d4b4963afb70778d6354ad3a41611aec565b111561260b5773a2998efd205fb9d4b4963afb70778d6354ad3a41606660006101000a81548173ffffffffffffffffffffffffffffffffffffffff021916908373ffffffffffffffffffffffffffffffffffffffff1602179055506126026040518060400160405280600a81526020017f6574685f676f65726c6900000000000000000000000000000000000000000000815250612d02565b60019050612799565b600061262a736f485c8bf6fc43ea212e93bbf8ce046c7f1cb475611aec565b111561268e57736f485c8bf6fc43ea212e93bbf8ce046c7f1cb475606660006101000a81548173ffffffffffffffffffffffffffffffffffffffff021916908373ffffffffffffffffffffffffffffffffffffffff16021790555060019050612799565b60006126ad7320e12a1f859b3feae5fb2a0a32c18f5a65555bbf611aec565b1115612711577320e12a1f859b3feae5fb2a0a32c18f5a65555bbf606660006101000a81548173ffffffffffffffffffffffffffffffffffffffff021916908373ffffffffffffffffffffffffffffffffffffffff16021790555060019050612799565b60006127307351efaf4c8b3c9afbd5ab9f4bbc82784ab6ef8faa611aec565b1115612794577351efaf4c8b3c9afbd5ab9f4bbc82784ab6ef8faa606660006101000a81548173ffffffffffffffffffffffffffffffffffffffff021916908373ffffffffffffffffffffffffffffffffffffffff16021790555060019050612799565b600090505b90565b60008073ffffffffffffffffffffffffffffffffffffffff16606660009054906101000a900473ffffffffffffffffffffffffffffffffffffffff1673ffffffffffffffffffffffffffffffffffffffff16148061282457506000612822606660009054906101000a900473ffffffffffffffffffffffffffffffffffffffff16611aec565b145b15612835576128336000611af7565b505b606660009054906101000a900473ffffffffffffffffffffffffffffffffffffffff1673ffffffffffffffffffffffffffffffffffffffff166338cc48316040518163ffffffff1660e01b8152600401602060405180830381600087803b15801561289f57600080fd5b505af11580156128b3573d6000803e3d6000fd5b505050506040513d60208110156128c957600080fd5b810190808051906020019092919050505073ffffffffffffffffffffffffffffffffffffffff16606560009054906101000a900473ffffffffffffffffffffffffffffffffffffffff1673ffffffffffffffffffffffffffffffffffffffff1614612a1457606660009054906101000a900473ffffffffffffffffffffffffffffffffffffffff1673ffffffffffffffffffffffffffffffffffffffff166338cc48316040518163ffffffff1660e01b8152600401602060405180830381600087803b15801561299857600080fd5b505af11580156129ac573d6000803e3d6000fd5b505050506040513d60208110156129c257600080fd5b8101908080519060200190929190505050606560006101000a81548173ffffffffffffffffffffffffffffffffffffffff021916908373ffffffffffffffffffffffffffffffffffffffff1602179055505b6000606560009054906101000a900473ffffffffffffffffffffffffffffffffffffffff1673ffffffffffffffffffffffffffffffffffffffff16632ef3accc86856040518363ffffffff1660e01b81526004018080602001838152602001828103825284818151815260200191508051906020019080838360005b83811015612aab578082015181840152602081019050612a90565b50505050905090810190601f168015612ad85780820380516001836020036101000a031916815260200191505b509350505050602060405180830381600087803b158015612af857600080fd5b505af1158015612b0c573d6000803e3d6000fd5b505050506040513d6020811015612b2257600080fd5b81019080805190602001909291905050509050823a02670de0b6b3a764000001811115612b55576000801b915050612cfb565b6060612b6085612d1c565b9050606560009054906101000a900473ffffffffffffffffffffffffffffffffffffffff1673ffffffffffffffffffffffffffffffffffffffff1663c55c1cb68360008985896040518663ffffffff1660e01b8152600401808581526020018060200180602001848152602001838103835286818151815260200191508051906020019080838360005b83811015612c05578082015181840152602081019050612bea565b50505050905090810190601f168015612c325780820380516001836020036101000a031916815260200191505b50838103825285818151815260200191508051906020019080838360005b83811015612c6b578082015181840152602081019050612c50565b50505050905090810190601f168015612c985780820380516001836020036101000a031916815260200191505b5096505050505050506020604051808303818588803b158015612cba57600080fd5b505af1158015612cce573d6000803e3d6000fd5b50505050506040513d6020811015612ce557600080fd5b8101908080519060200190929190505050925050505b9392505050565b8060679080519060200190612d18929190613149565b5050565b6060612d26612d99565b612d2e6131c9565b612d3a81610400612da5565b612d4381612def565b60005b8351811015612d8257612d75848281518110612d5e57fe5b602002602001015183612dfd90919063ffffffff16565b8080600101915050612d46565b50612d8c81612e22565b8060000151915050919050565b60405180590338823950565b6000819050600060208281612db657fe5b0614612dcf5760208181612dc657fe5b06602003810190505b808360200181815250506040518084526000815281810160405250505050565b612dfa816004612e30565b50565b612e0a8260028351612e51565b612e1d8183612f9190919063ffffffff16565b505050565b612e2d816007612e30565b50565b612e4d601f60058360ff16901b178361303c90919063ffffffff16565b5050565b60178111612e7d57612e788160058460ff16901b60ff16178461303c90919063ffffffff16565b612f8c565b60ff8111612ebe57612ea2601860058460ff16901b178461303c90919063ffffffff16565b612eb88160018561307c9092919063ffffffff16565b50612f8b565b61ffff8111612f0057612ee4601960058460ff16901b178461303c90919063ffffffff16565b612efa8160028561307c9092919063ffffffff16565b50612f8a565b63ffffffff8111612f4457612f28601a60058460ff16901b178461303c90919063ffffffff16565b612f3e8160048561307c9092919063ffffffff16565b50612f89565b67ffffffffffffffff8111612f8857612f70601b60058460ff16901b178461303c90919063ffffffff16565b612f868160088561307c9092919063ffffffff16565b505b5b5b5b5b505050565b612f996131c9565b82602001518360000151518351011115612fc957612fc8836002612fc2866020015186516130e3565b026130ff565b5b60008060008451905085518051602081830101945086518101825260208701935050505b602081106130105781518352602083019250602082019150602081039050612fed565b60006001826020036101000a039050801983511681855116818117865250508694505050505092915050565b81602001516001836000015151011115613062576130618260028460200151026130ff565b5b815180516020818301018381536001820183525050505050565b6130846131c9565b8360200151846000015151830111156130b2576130b18460026130ab8760200151866130e3565b026130ff565b5b60006001836101000a0390508451805184818301018684198251161781528582018352505050849150509392505050565b6000818311156130f5578290506130f9565b8190505b92915050565b6060826000015190506131128383612da5565b61311c8382612f91565b50505050565b60405180608001604052806004905b60608152602001906001900390816131315790505090565b828054600181600116156101000203166002900490600052602060002090601f016020900481019282601f1061318a57805160ff19168380011785556131b8565b828001600101855582156131b8579182015b828111156131b757825182559160200191906001019061319c565b5b5090506131c591906131e3565b5090565b604051806040016040528060608152602001600081525090565b5b808211156131fc5760008160009055506001016131e4565b509056fe496e697469616c697a61626c653a20636f6e747261637420697320616c726561647920696e697469616c697a65644e6f7420656e6f7567682065746820666f72204f7261636c652051756572792067617320616e642067616d65a26469706673582212208df0cad190fe4e11b9e0041f226506f6a38323a33254f483cc3989c64499919964736f6c63430007000033",
  "immutableReferences": {},
  "source": "//SPDX-License-Identifier: MIT\r\n//Following Open Zeppelins' solc version control - hopefully the code works.\r\n//Let's go with solc 0.8.0 in the compile to try and optimize longevity.\r\npragma solidity >=0.7.0;\r\n\r\n//Trying to follow along with Open Zeppelin's docs\r\n\r\n// to do: put in Open-Zeppelin libraries for:\r\n// pause functionality (Pausable)\r\n// initialize functionality (Initializable)\r\n// proxy admin?\r\n// is there an admin?\r\n\r\n//import \"@openzeppelin/upgrades/contracts/Initializable.sol\";\r\n//import \"@openzeppelin/contracts-upgradeable/proxy/initializable.sol\";\r\nimport \"@openzeppelin/contracts-upgradeable/utils/pausableupgradeable.sol\";\r\n\r\nimport \"./provableAPI_0.6.sol\";\r\n\r\ncontract DogDiceDAOGamev2_Test is Initializable, PausableUpgradeable, usingProvable {\r\n\r\n    //pattern  as per \r\n    //@filipmartinsson/Smart-Contract-Security/blob/master/Upgradeable-Advanced/contracts/Storage.sol\r\n\r\n    mapping (string => uint256) _uintMapping;\r\n    mapping (string => address ) _addressMapping;\r\n    mapping (string => bool ) _boolMapping;\r\n    mapping (string => string) _stringMapping;\r\n    mapping (string => bytes32 ) _bytesMapping;\r\n    mapping (address => uint256) _balanceMapping;\r\n    \r\n    //The below was the intended implementation but apparently structs have issues\r\n    //(OpenZeppelin spittiing out ominous error messages re upgradeable contract memory).\r\n    // struct Match {\r\n    //     bool finished;\r\n    //     bytes32 id;\r\n    //     address player;\r\n    //     uint256 staked_amount;\r\n    //     bool won;\r\n    // }\r\n    // mapping (bytes32 => Match) _matchMapping;\r\n    \r\n    //So let's explode the mapping instead:\r\n\r\n    mapping (bytes32 => bool) _matchFinishedMapping;\r\n    mapping (bytes32 => address) _matchPlayerMapping;\r\n    mapping (bytes32 => uint256) _matchStakeMapping;\r\n    mapping (bytes32 => bool) _matchWonMapping;\r\n\r\n    \r\n    address  owner; // introduced this address as the upgrade number 1\r\n\r\n    function initialize() public initializer {\r\n        // Depending on how the OpenZeppelin deployment works the below\r\n        // is to be removed or reinstated.\r\n        owner = msg.sender;\r\n        \r\n        _addressMapping[\"initializer\"] = msg.sender;\r\n        _uintMapping[\"latestRandomNumber\"] = 0;\r\n        _uintMapping[\"previousRandomNumber\"] = 0;\r\n        _uintMapping[\"MAX_INT_FROM_BYTE\"] = 256;\r\n        _uintMapping[\"NUM_RANDOM_BYTES_REQUESTED\"] = 1;\r\n\r\n    }\r\n\r\n    // Functions this game contract should have:\r\n    // 1)Random function call routine.\r\n    // 2)Check whether a game resulted in a win or loss.\r\n    // 3)In the future, this will be upgradeable to specifically check if one of two\r\n    //  players won or lost so the code must reflect this forward-compatiility.\r\n    // 4)Store user accounts and associated balances.\r\n    // 5)Store user accounts and any associated tokens.\r\n    // 6)Store user accounts and any associated NFTs.\r\n    // 7)Get user accounts and associated balances.\r\n    // 8)Get user accounts and any associated tokens.\r\n    // 9)Get user accounts and any associated NFTs.\r\n    // 10)Associated indexed events.\r\n    // 11)Governance contract can be a contract upgrade or an entirely different contract.\r\n\r\n    // 1)Random function call routine.\r\n    // -Implementation will use Provable Things as per Filip's tutorial in Ivan's Academy:\r\n    //https://github.com/filipmartinsson/solidity-201/blob/master/oracle-contract/contract.sol\r\n    \r\n    // _uintMapping[\"MAX_INT_FROM_BYTE\"] = 256;\r\n    // _uintMapping[\"NUM_RANDOM_BYTES_REQUESTED\"] = 1;\r\n    // _uintMapping[\"previousRandomNumber\"] = 0;\r\n    // _uintMapping[\"latestRandomNumber\"] = 0;\r\n    // _uintMapping[\"randomNumberCeiling\"] = 2;//initializer is handling these\r\n    \r\n    //the following events are borrowed from  lohba/Coin-Flip-Dapp-v2 on Github:\r\n    event LogNewProvableQuery(string description);\r\n    event generatedRandomNumber(uint256 randomNumber);\r\n    event resultOutcome(address player, bool won, uint256 playerBalance);\r\n    \r\n\r\n    function __callback(bytes32 _queryId, string memory _result, bytes memory _proof) public override\r\n    {\r\n        require(msg.sender == provable_cbAddress());\r\n\r\n        _uintMapping[\"previousRandomNumber\"] = _uintMapping[\"latestRandomNumber\"];\r\n        _uintMapping[\"latestRandomNumber\"] = uint256(keccak256(abi.encodePacked(_result)))\r\n                                                % _uintMapping[\"randomNumberCeiling\"];\r\n        emit generatedRandomNumber( _uintMapping[\"latestRandomNumber\"]);\r\n        processGameResult(_uintMapping[\"latestRandomNumber\"], _queryId);\r\n                                            \r\n    }\r\n    \r\n    function upgradeTest() public pure returns(string memory) {\r\n        return \"testing the upgrade!\";\r\n    }\r\n\r\n    function updateRandomNumber(address _player, uint256 _stake) payable public\r\n    {\r\n        _uintMapping[\"QUERY_EXECUTION_DELAY\"] = 0;\r\n        _uintMapping[\"GAS_FOR_CALLBACK \"] = 200000;\r\n        bytes32 _id = provable_newRandomDSQuery(\r\n                                    _uintMapping[\"QUERY_EXECUTION_DELAY\"],\r\n                                    _uintMapping[\"NUM_RANDOM_BYTES_REQUESTED\"],\r\n                                    _uintMapping[\"GAS_FOR_CALLBACK \"]\r\n                                );\r\n        // _matchMapping[_id].id = _id;\r\n        // _matchMapping[_id].player = _player;\r\n        // _matchMapping[_id].staked_amount = _stake;\r\n        // _matchMapping[_id].won = false;\r\n        // _matchMapping[_id].finished = false;\r\n        _matchPlayerMapping[_id] = _player;\r\n        _matchStakeMapping[_id] = _stake;\r\n        _matchWonMapping[_id] = false;\r\n        _matchFinishedMapping[_id] = false;\r\n        \r\n        emit LogNewProvableQuery(\"Provable Query sent...\");\r\n\r\n    }\r\n    \r\n    \r\n    // 2)Check whether a game resulted in a win or loss.\r\n    \r\n    function playGame(uint256 _stake) public payable\r\n    {\r\n        require(_stake <= _balanceMapping[msg.sender], \"Insufficient balance!\");\r\n        _balanceMapping[msg.sender] -= _stake;\r\n        _stake += msg.value; \r\n        _stake -= _uintMapping[\"GAS_FOR_CALLBACK \"];\r\n        require( _stake > 0, \"Not enough eth for Oracle Query gas and game\" );\r\n        updateRandomNumber(msg.sender, _stake); //Assuming that the gas is simply drawn from the contract address.\r\n    }\r\n\r\n    function processGameResult(uint256 _numberReceived, bytes32 _gameId) private\r\n    {\r\n        _matchFinishedMapping[_gameId] = true;\r\n        bool won = checkWinCondition(_numberReceived);\r\n        if (won && _matchFinishedMapping[_gameId])\r\n        {\r\n            _matchWonMapping[_gameId] = true;\r\n            _balanceMapping[_matchPlayerMapping[_gameId]] +=\r\n                            _matchStakeMapping[_gameId];   \r\n        }\r\n    }\r\n\r\n    function checkWinCondition(uint256 _numberReceived) private pure returns (bool) \r\n    {   \r\n        bool result = _numberReceived % 2 == 1;\r\n        return result;\r\n    }\r\n\r\n    // 3)In the future, this will be upgradeable to specifically check if one of two\r\n    //  players won or lost so the code must reflect this forward-compatiility.\r\n    //  -Here there just needs to be further workings on sockets, concurrency etc to prevent\r\n    //   too random number calls for one multiplayer game.\r\n\r\n    // 4)Store user accounts and associated balances.\r\n    // 5)Store user accounts and any associated tokens.\r\n    // 6)Store user accounts and any associated NFTs.\r\n\r\n    // Initial implementation: simple deposit to user balance, all txns in Eth.\r\n\r\n    function depositEth () public payable\r\n    {\r\n        require(msg.value>0, \"Non-zero deposit needed.\");\r\n        _balanceMapping[msg.sender] += msg.value;\r\n    }\r\n\r\n    function withdrawEth (uint256 _withdrawalAmount) public\r\n    {\r\n        _balanceMapping[msg.sender] -= _withdrawalAmount;\r\n        msg.sender.transfer( _withdrawalAmount) ;\r\n    }\r\n\r\n\r\n    // 7)Get user accounts and associated balances.\r\n    // 8)Get user accounts and any associated tokens.\r\n    // 9)Get user accounts and any associated NFTs.\r\n\r\n    // Initial implementation: deposits and balances only in Eth.\r\n\r\n    function getBalance() public view returns (uint256)\r\n    {\r\n        return _balanceMapping[msg.sender];\r\n    }\r\n\r\n    //Further considerations:\r\n    // 10)Associated indexed events.\r\n    // 11)Governance contract can be a contract upgrade or an entirely different contract.\r\n\r\n\r\n\r\n\r\n\r\n\r\n\r\n\r\n\r\n\r\n\r\n\r\n}\r\n\r\n\r\n\r\n",
  "sourcePath": "C:/Users/rajas/Desktop/Blockchain/Dog Dice DAO/website/smart-contracts/contracts/TestContractUpgrade.sol",
  "compiler": {
    "name": "solc",
    "version": "0.7.0+commit.9e61f92b.Emscripten.clang"
  },
  "schemaVersion": "3.3.3",
  "updatedAt": "2021-01-04T12:37:49.261Z",
  "networkType": "ethereum",
  "devdoc": {
    "kind": "dev",
    "methods": {
      "__callback(bytes32,string)": {
        "details": "The following `__callback` functions are just placeholders ideally      meant to be defined in child contract when proofs are used.      The function bodies simply silence compiler warnings."
      },
      "paused()": {
        "details": "Returns true if the contract is paused, and false otherwise."
      }
    },
    "version": 1
  },
  "userdoc": {
    "kind": "user",
    "methods": {},
    "version": 1
  }
}