{
  "contractName": "DogDiceDAOGame",
  "abi": [
    {
      "anonymous": false,
      "inputs": [
        {
          "indexed": false,
          "internalType": "string",
          "name": "description",
          "type": "string"
        }
      ],
      "name": "LogNewProvableQuery",
      "type": "event"
    },
    {
      "anonymous": false,
      "inputs": [
        {
          "indexed": false,
          "internalType": "address",
          "name": "account",
          "type": "address"
        }
      ],
      "name": "Paused",
      "type": "event"
    },
    {
      "anonymous": false,
      "inputs": [
        {
          "indexed": false,
          "internalType": "address",
          "name": "account",
          "type": "address"
        }
      ],
      "name": "Unpaused",
      "type": "event"
    },
    {
      "anonymous": false,
      "inputs": [
        {
          "indexed": false,
          "internalType": "uint256",
          "name": "randomNumber",
          "type": "uint256"
        }
      ],
      "name": "generatedRandomNumber",
      "type": "event"
    },
    {
      "anonymous": false,
      "inputs": [
        {
          "indexed": false,
          "internalType": "address",
          "name": "player",
          "type": "address"
        },
        {
          "indexed": false,
          "internalType": "bool",
          "name": "won",
          "type": "bool"
        },
        {
          "indexed": false,
          "internalType": "uint256",
          "name": "playerBalance",
          "type": "uint256"
        }
      ],
      "name": "resultOutcome",
      "type": "event"
    },
    {
      "inputs": [],
      "name": "paused",
      "outputs": [
        {
          "internalType": "bool",
          "name": "",
          "type": "bool"
        }
      ],
      "stateMutability": "view",
      "type": "function",
      "constant": true
    },
    {
      "inputs": [],
      "name": "initialize",
      "outputs": [],
      "stateMutability": "nonpayable",
      "type": "function"
    },
    {
      "inputs": [
        {
          "internalType": "bytes32",
          "name": "_myid",
          "type": "bytes32"
        },
        {
          "internalType": "string",
          "name": "_result",
          "type": "string"
        }
      ],
      "name": "__callback",
      "outputs": [],
      "stateMutability": "nonpayable",
      "type": "function"
    },
    {
      "inputs": [
        {
          "internalType": "bytes32",
          "name": "_queryId",
          "type": "bytes32"
        },
        {
          "internalType": "string",
          "name": "_result",
          "type": "string"
        },
        {
          "internalType": "bytes",
          "name": "_proof",
          "type": "bytes"
        }
      ],
      "name": "__callback",
      "outputs": [],
      "stateMutability": "nonpayable",
      "type": "function"
    },
    {
      "inputs": [
        {
          "internalType": "address",
          "name": "_player",
          "type": "address"
        },
        {
          "internalType": "uint256",
          "name": "_stake",
          "type": "uint256"
        }
      ],
      "name": "updateRandomNumber",
      "outputs": [],
      "stateMutability": "payable",
      "type": "function",
      "payable": true
    },
    {
      "inputs": [
        {
          "internalType": "uint256",
          "name": "_stake",
          "type": "uint256"
        }
      ],
      "name": "playGame",
      "outputs": [],
      "stateMutability": "payable",
      "type": "function",
      "payable": true
    },
    {
      "inputs": [],
      "name": "depositEth",
      "outputs": [],
      "stateMutability": "payable",
      "type": "function",
      "payable": true
    },
    {
      "inputs": [
        {
          "internalType": "uint256",
          "name": "_withdrawalAmount",
          "type": "uint256"
        }
      ],
      "name": "withdrawEth",
      "outputs": [],
      "stateMutability": "nonpayable",
      "type": "function"
    },
    {
      "inputs": [],
      "name": "getBalance",
      "outputs": [
        {
          "internalType": "uint256",
          "name": "",
          "type": "uint256"
        }
      ],
      "stateMutability": "view",
      "type": "function",
      "constant": true
    }
  ],
  "bytecode": "0x608060405234801561001057600080fd5b50613177806100206000396000f3fe6080604052600436106100865760003560e01c80635873533d116100595780635873533d146102fb5780635c975abb146103295780638129fc1c14610356578063a323c57b1461036d578063c311d049146103bb57610086565b806312065fe01461008b57806327dc297e146100b657806338bbfa5014610188578063439370b1146102f1575b600080fd5b34801561009757600080fd5b506100a06103f6565b6040518082815260200191505060405180910390f35b3480156100c257600080fd5b50610186600480360360408110156100d957600080fd5b81019080803590602001909291908035906020019064010000000081111561010057600080fd5b82018360208201111561011257600080fd5b8035906020019184600183028401116401000000008311171561013457600080fd5b91908080601f016020809104026020016040519081016040528093929190818152602001838380828437600081840152601f19601f82011690508083019250505050505050919291929050505061043d565b005b34801561019457600080fd5b506102ef600480360360608110156101ab57600080fd5b8101908080359060200190929190803590602001906401000000008111156101d257600080fd5b8201836020820111156101e457600080fd5b8035906020019184600183028401116401000000008311171561020657600080fd5b91908080601f016020809104026020016040519081016040528093929190818152602001838380828437600081840152601f19601f8201169050808301925050505050505091929192908035906020019064010000000081111561026957600080fd5b82018360208201111561027b57600080fd5b8035906020019184600183028401116401000000008311171561029d57600080fd5b91908080601f016020809104026020016040519081016040528093929190818152602001838380828437600081840152601f19601f820116905080830192505050505050509192919290505050610497565b005b6102f9610717565b005b6103276004803603602081101561031157600080fd5b81019080803590602001909291905050506107dc565b005b34801561033557600080fd5b5061033e61098c565b60405180821515815260200191505060405180910390f35b34801561036257600080fd5b5061036b6109a3565b005b6103b96004803603604081101561038357600080fd5b81019080803573ffffffffffffffffffffffffffffffffffffffff16906020019092919080359060200190929190505050610c2f565b005b3480156103c757600080fd5b506103f4600480360360208110156103de57600080fd5b8101908080359060200190929190505050610eb1565b005b6000606f60003373ffffffffffffffffffffffffffffffffffffffff1673ffffffffffffffffffffffffffffffffffffffff16815260200190815260200160002054905090565b6104938282600067ffffffffffffffff8111801561045a57600080fd5b506040519080825280601f01601f19166020018201604052801561048d5781602001600182028036833780820191505090505b50610497565b5050565b61049f610f48565b73ffffffffffffffffffffffffffffffffffffffff163373ffffffffffffffffffffffffffffffffffffffff16146104d657600080fd5b606a60405180807f6c617465737452616e646f6d4e756d62657200000000000000000000000000008152506012019050908152602001604051809103902054606a60405180807f70726576696f757352616e646f6d4e756d6265720000000000000000000000008152506014019050908152602001604051809103902081905550606a60405180807f72616e646f6d4e756d6265724365696c696e67000000000000000000000000008152506013019050908152602001604051809103902054826040516020018082805190602001908083835b602083106105cd57805182526020820191506020810190506020830392506105aa565b6001836020036101000a0380198251168184511680821785525050505050509050019150506040516020818303038152906040528051906020012060001c8161061257fe5b06606a60405180807f6c617465737452616e646f6d4e756d626572000000000000000000000000000081525060120190509081526020016040518091039020819055507fc13d60fe9dffdb6908d2d446cd18134373a51db0738ee04f296eeb9128121cbc606a60405180807f6c617465737452616e646f6d4e756d626572000000000000000000000000000081525060120190509081526020016040518091039020546040518082815260200191505060405180910390a1610712606a60405180807f6c617465737452616e646f6d4e756d626572000000000000000000000000000081525060120190509081526020016040518091039020548461126a565b505050565b6000341161078d576040517f08c379a00000000000000000000000000000000000000000000000000000000081526004018080602001828103825260188152602001807f4e6f6e2d7a65726f206465706f736974206e65656465642e000000000000000081525060200191505060405180910390fd5b34606f60003373ffffffffffffffffffffffffffffffffffffffff1673ffffffffffffffffffffffffffffffffffffffff16815260200190815260200160002060008282540192505081905550565b606f60003373ffffffffffffffffffffffffffffffffffffffff1673ffffffffffffffffffffffffffffffffffffffff16815260200190815260200160002054811115610891576040517f08c379a00000000000000000000000000000000000000000000000000000000081526004018080602001828103825260158152602001807f496e73756666696369656e742062616c616e636521000000000000000000000081525060200191505060405180910390fd5b80606f60003373ffffffffffffffffffffffffffffffffffffffff1673ffffffffffffffffffffffffffffffffffffffff168152602001908152602001600020600082825403925050819055503481019050606a60405180807f4741535f464f525f43414c4c4241434b200000000000000000000000000000008152506011019050908152602001604051809103902054810390506000811161097f576040517f08c379a000000000000000000000000000000000000000000000000000000000815260040180806020018281038252602c815260200180613116602c913960400191505060405180910390fd5b6109893382610c2f565b50565b6000603360009054906101000a900460ff16905090565b600060019054906101000a900460ff16806109c257506109c1611397565b5b806109d8575060008054906101000a900460ff16155b610a2d576040517f08c379a000000000000000000000000000000000000000000000000000000000815260040180806020018281038252602e8152602001806130e8602e913960400191505060405180910390fd5b60008060019054906101000a900460ff161590508015610a7d576001600060016101000a81548160ff02191690831515021790555060016000806101000a81548160ff0219169083151502179055505b33606b60405180807f696e697469616c697a6572000000000000000000000000000000000000000000815250600b019050908152602001604051809103902060006101000a81548173ffffffffffffffffffffffffffffffffffffffff021916908373ffffffffffffffffffffffffffffffffffffffff1602179055506000606a60405180807f6c617465737452616e646f6d4e756d626572000000000000000000000000000081525060120190509081526020016040518091039020819055506000606a60405180807f70726576696f757352616e646f6d4e756d6265720000000000000000000000008152506014019050908152602001604051809103902081905550610100606a60405180807f4d41585f494e545f46524f4d5f4259544500000000000000000000000000000081525060110190509081526020016040518091039020819055506001606a60405180807f4e554d5f52414e444f4d5f42595445535f524551554553544544000000000000815250601a0190509081526020016040518091039020819055508015610c2c5760008060016101000a81548160ff0219169083151502179055505b50565b6000606a60405180807f51554552595f455845435554494f4e5f44454c41590000000000000000000000815250601501905090815260200160405180910390208190555062030d40606a60405180807f4741535f464f525f43414c4c4241434b2000000000000000000000000000000081525060110190509081526020016040518091039020819055506000610d80606a60405180807f51554552595f455845435554494f4e5f44454c415900000000000000000000008152506015019050908152602001604051809103902054606a60405180807f4e554d5f52414e444f4d5f42595445535f524551554553544544000000000000815250601a019050908152602001604051809103902054606a60405180807f4741535f464f525f43414c4c4241434b2000000000000000000000000000000081525060110190509081526020016040518091039020546113ae565b9050826071600083815260200190815260200160002060006101000a81548173ffffffffffffffffffffffffffffffffffffffff021916908373ffffffffffffffffffffffffffffffffffffffff16021790555081607260008381526020019081526020016000208190555060006073600083815260200190815260200160002060006101000a81548160ff02191690831515021790555060006070600083815260200190815260200160002060006101000a81548160ff0219169083151502179055507fc4dc360d0a9c0677a3379ae0a3d81e887f761e65fdf3d7e00859d1bcd3c473896040518080602001828103825260168152602001807f50726f7661626c652051756572792073656e742e2e2e0000000000000000000081525060200191505060405180910390a1505050565b80606f60003373ffffffffffffffffffffffffffffffffffffffff1673ffffffffffffffffffffffffffffffffffffffff168152602001908152602001600020600082825403925050819055503373ffffffffffffffffffffffffffffffffffffffff166108fc829081150290604051600060405180830381858888f19350505050158015610f44573d6000803e3d6000fd5b5050565b60008073ffffffffffffffffffffffffffffffffffffffff16606660009054906101000a900473ffffffffffffffffffffffffffffffffffffffff1673ffffffffffffffffffffffffffffffffffffffff161480610fd057506000610fce606660009054906101000a900473ffffffffffffffffffffffffffffffffffffffff166119d3565b145b15610fe157610fdf60006119de565b505b606660009054906101000a900473ffffffffffffffffffffffffffffffffffffffff1673ffffffffffffffffffffffffffffffffffffffff166338cc48316040518163ffffffff1660e01b8152600401602060405180830381600087803b15801561104b57600080fd5b505af115801561105f573d6000803e3d6000fd5b505050506040513d602081101561107557600080fd5b810190808051906020019092919050505073ffffffffffffffffffffffffffffffffffffffff16606560009054906101000a900473ffffffffffffffffffffffffffffffffffffffff1673ffffffffffffffffffffffffffffffffffffffff16146111c057606660009054906101000a900473ffffffffffffffffffffffffffffffffffffffff1673ffffffffffffffffffffffffffffffffffffffff166338cc48316040518163ffffffff1660e01b8152600401602060405180830381600087803b15801561114457600080fd5b505af1158015611158573d6000803e3d6000fd5b505050506040513d602081101561116e57600080fd5b8101908080519060200190929190505050606560006101000a81548173ffffffffffffffffffffffffffffffffffffffff021916908373ffffffffffffffffffffffffffffffffffffffff1602179055505b606560009054906101000a900473ffffffffffffffffffffffffffffffffffffffff1673ffffffffffffffffffffffffffffffffffffffff1663c281d19e6040518163ffffffff1660e01b8152600401602060405180830381600087803b15801561122a57600080fd5b505af115801561123e573d6000803e3d6000fd5b505050506040513d602081101561125457600080fd5b8101908080519060200190929190505050905090565b60016070600083815260200190815260200160002060006101000a81548160ff02191690831515021790555060006112a1836119ef565b90508080156112cd57506070600083815260200190815260200160002060009054906101000a900460ff165b156113925760016073600084815260200190815260200160002060006101000a81548160ff0219169083151502179055506072600083815260200190815260200160002054606f60006071600086815260200190815260200160002060009054906101000a900473ffffffffffffffffffffffffffffffffffffffff1673ffffffffffffffffffffffffffffffffffffffff1673ffffffffffffffffffffffffffffffffffffffff168152602001908152602001600020600082825401925050819055505b505050565b6000803090506000813b9050600081149250505090565b600080831180156113c0575060208311155b6113c957600080fd5b600a840293506060600167ffffffffffffffff811180156113e957600080fd5b506040519080825280601f01601f19166020018201604052801561141c5781602001600182028036833780820191505090505b5090508360f81b8160008151811061143057fe5b60200101907effffffffffffffffffffffffffffffffffffffffffffffffffffffffffffff1916908160001a9053506060602067ffffffffffffffff8111801561147957600080fd5b506040519080825280601f01601f1916602001820160405280156114ac5781602001600182028036833780820191505090505b5090506060602067ffffffffffffffff811180156114c957600080fd5b506040519080825280601f01601f1916602001820160405280156114fc5781602001600182028036833780820191505090505b5090506000611509611a0b565b9050602083524241186001430340186020840152602082528060208301526060602067ffffffffffffffff8111801561154157600080fd5b506040519080825280601f01601f1916602001820160405280156115745781602001600182028036833780820191505090505b5090508860208201526060600867ffffffffffffffff8111801561159757600080fd5b506040519080825280601f01601f1916602001820160405280156115ca5781602001600182028036833780820191505090505b5090506115dd8260186008846000611d2b565b506115e6613009565b6040518060800160405280878152602001888152602001868152602001848152509050600061164b6040518060400160405280600681526020017f72616e646f6d0000000000000000000000000000000000000000000000000000815250838c611d8a565b90506060600867ffffffffffffffff8111801561166757600080fd5b506040519080825280601f01601f19166020018201604052801561169a5781602001600182028036833780820191505090505b50905060208401517f0100000000000000000000000000000000000000000000000000000000000000810460278301537e01000000000000000000000000000000000000000000000000000000000000810460268301537d010000000000000000000000000000000000000000000000000000000000810460258301537c0100000000000000000000000000000000000000000000000000000000810460248301537b01000000000000000000000000000000000000000000000000000000810460238301537a0100000000000000000000000000000000000000000000000000008104602283015379010000000000000000000000000000000000000000000000000081046021830153780100000000000000000000000000000000000000000000000081046020830153506119c08282856001600481106117d957fe5b60200201516002876000600481106117ed57fe5b60200201516040518082805190602001908083835b602083106118255780518252602082019150602081019050602083039250611802565b6001836020036101000a038019825116818451168082178552505050505050905001915050602060405180830381855afa158015611867573d6000803e3d6000fd5b5050506040513d602081101561187c57600080fd5b81019080805190602001909291905050508760026004811061189a57fe5b60200201516040516020018085805190602001908083835b602083106118d557805182526020820191506020810190506020830392506118b2565b6001836020036101000a03801982511681845116808217855250505050505090500184805190602001908083835b602083106119265780518252602082019150602081019050602083039250611903565b6001836020036101000a03801982511681845116808217855250505050505090500183815260200182805190602001908083835b6020831061197d578051825260208201915060208101905060208303925061195a565b6001836020036101000a03801982511681845116808217855250505050505090500194505050505060405160208183030381529060405280519060200120612110565b8199505050505050505050509392505050565b6000813b9050919050565b60006119e861212c565b9050919050565b6000806001600284816119fe57fe5b0614905080915050919050565b60008073ffffffffffffffffffffffffffffffffffffffff16606660009054906101000a900473ffffffffffffffffffffffffffffffffffffffff1673ffffffffffffffffffffffffffffffffffffffff161480611a9357506000611a91606660009054906101000a900473ffffffffffffffffffffffffffffffffffffffff166119d3565b145b15611aa457611aa260006119de565b505b606660009054906101000a900473ffffffffffffffffffffffffffffffffffffffff1673ffffffffffffffffffffffffffffffffffffffff166338cc48316040518163ffffffff1660e01b8152600401602060405180830381600087803b158015611b0e57600080fd5b505af1158015611b22573d6000803e3d6000fd5b505050506040513d6020811015611b3857600080fd5b810190808051906020019092919050505073ffffffffffffffffffffffffffffffffffffffff16606560009054906101000a900473ffffffffffffffffffffffffffffffffffffffff1673ffffffffffffffffffffffffffffffffffffffff1614611c8357606660009054906101000a900473ffffffffffffffffffffffffffffffffffffffff1673ffffffffffffffffffffffffffffffffffffffff166338cc48316040518163ffffffff1660e01b8152600401602060405180830381600087803b158015611c0757600080fd5b505af1158015611c1b573d6000803e3d6000fd5b505050506040513d6020811015611c3157600080fd5b8101908080519060200190929190505050606560006101000a81548173ffffffffffffffffffffffffffffffffffffffff021916908373ffffffffffffffffffffffffffffffffffffffff1602179055505b606560009054906101000a900473ffffffffffffffffffffffffffffffffffffffff1673ffffffffffffffffffffffffffffffffffffffff1663abaa5f3e6040518163ffffffff1660e01b815260040160206040518083038186803b158015611ceb57600080fd5b505afa158015611cff573d6000803e3d6000fd5b505050506040513d6020811015611d1557600080fd5b8101908080519060200190929190505050905090565b6060600082850190508084511015611d4257600080fd5b600086602001905060008460200190505b868860200101821015611d7b5781890151808288015250602082019150602081019050611d53565b85935050505095945050505050565b60008073ffffffffffffffffffffffffffffffffffffffff16606660009054906101000a900473ffffffffffffffffffffffffffffffffffffffff1673ffffffffffffffffffffffffffffffffffffffff161480611e1257506000611e10606660009054906101000a900473ffffffffffffffffffffffffffffffffffffffff166119d3565b145b15611e2357611e2160006119de565b505b606660009054906101000a900473ffffffffffffffffffffffffffffffffffffffff1673ffffffffffffffffffffffffffffffffffffffff166338cc48316040518163ffffffff1660e01b8152600401602060405180830381600087803b158015611e8d57600080fd5b505af1158015611ea1573d6000803e3d6000fd5b505050506040513d6020811015611eb757600080fd5b810190808051906020019092919050505073ffffffffffffffffffffffffffffffffffffffff16606560009054906101000a900473ffffffffffffffffffffffffffffffffffffffff1673ffffffffffffffffffffffffffffffffffffffff161461200257606660009054906101000a900473ffffffffffffffffffffffffffffffffffffffff1673ffffffffffffffffffffffffffffffffffffffff166338cc48316040518163ffffffff1660e01b8152600401602060405180830381600087803b158015611f8657600080fd5b505af1158015611f9a573d6000803e3d6000fd5b505050506040513d6020811015611fb057600080fd5b8101908080519060200190929190505050606560006101000a81548173ffffffffffffffffffffffffffffffffffffffff021916908373ffffffffffffffffffffffffffffffffffffffff1602179055505b6060600467ffffffffffffffff8111801561201c57600080fd5b5060405190808252806020026020018201604052801561205057816020015b606081526020019060019003908161203b5790505b5090508360006004811061206057fe5b60200201518160008151811061207257fe5b60200260200101819052508360016004811061208a57fe5b60200201518160018151811061209c57fe5b6020026020010181905250836002600481106120b457fe5b6020020151816002815181106120c657fe5b6020026020010181905250836003600481106120de57fe5b6020020151816003815181106120f057fe5b6020026020010181905250612106858285612683565b9150509392505050565b8060686000848152602001908152602001600020819055505050565b60008061214c731d3b2638a7cc9f2cb3d298a3da7a90b67e5506ed6119d3565b11156121ee57731d3b2638a7cc9f2cb3d298a3da7a90b67e5506ed606660006101000a81548173ffffffffffffffffffffffffffffffffffffffff021916908373ffffffffffffffffffffffffffffffffffffffff1602179055506121e56040518060400160405280600b81526020017f6574685f6d61696e6e6574000000000000000000000000000000000000000000815250612be9565b60019050612680565b600061220d73c03a2615d5efaf5f49f60b7bb6583eaec212fdf16119d3565b11156122af5773c03a2615d5efaf5f49f60b7bb6583eaec212fdf1606660006101000a81548173ffffffffffffffffffffffffffffffffffffffff021916908373ffffffffffffffffffffffffffffffffffffffff1602179055506122a66040518060400160405280600c81526020017f6574685f726f707374656e330000000000000000000000000000000000000000815250612be9565b60019050612680565b60006122ce73b7a07bcf2ba2f2703b24c0691b5278999c59ac7e6119d3565b11156123705773b7a07bcf2ba2f2703b24c0691b5278999c59ac7e606660006101000a81548173ffffffffffffffffffffffffffffffffffffffff021916908373ffffffffffffffffffffffffffffffffffffffff1602179055506123676040518060400160405280600981526020017f6574685f6b6f76616e0000000000000000000000000000000000000000000000815250612be9565b60019050612680565b600061238f73146500cfd35b22e4a392fe0adc06de1a1368ed486119d3565b11156124315773146500cfd35b22e4a392fe0adc06de1a1368ed48606660006101000a81548173ffffffffffffffffffffffffffffffffffffffff021916908373ffffffffffffffffffffffffffffffffffffffff1602179055506124286040518060400160405280600b81526020017f6574685f72696e6b656279000000000000000000000000000000000000000000815250612be9565b60019050612680565b600061245073a2998efd205fb9d4b4963afb70778d6354ad3a416119d3565b11156124f25773a2998efd205fb9d4b4963afb70778d6354ad3a41606660006101000a81548173ffffffffffffffffffffffffffffffffffffffff021916908373ffffffffffffffffffffffffffffffffffffffff1602179055506124e96040518060400160405280600a81526020017f6574685f676f65726c6900000000000000000000000000000000000000000000815250612be9565b60019050612680565b6000612511736f485c8bf6fc43ea212e93bbf8ce046c7f1cb4756119d3565b111561257557736f485c8bf6fc43ea212e93bbf8ce046c7f1cb475606660006101000a81548173ffffffffffffffffffffffffffffffffffffffff021916908373ffffffffffffffffffffffffffffffffffffffff16021790555060019050612680565b60006125947320e12a1f859b3feae5fb2a0a32c18f5a65555bbf6119d3565b11156125f8577320e12a1f859b3feae5fb2a0a32c18f5a65555bbf606660006101000a81548173ffffffffffffffffffffffffffffffffffffffff021916908373ffffffffffffffffffffffffffffffffffffffff16021790555060019050612680565b60006126177351efaf4c8b3c9afbd5ab9f4bbc82784ab6ef8faa6119d3565b111561267b577351efaf4c8b3c9afbd5ab9f4bbc82784ab6ef8faa606660006101000a81548173ffffffffffffffffffffffffffffffffffffffff021916908373ffffffffffffffffffffffffffffffffffffffff16021790555060019050612680565b600090505b90565b60008073ffffffffffffffffffffffffffffffffffffffff16606660009054906101000a900473ffffffffffffffffffffffffffffffffffffffff1673ffffffffffffffffffffffffffffffffffffffff16148061270b57506000612709606660009054906101000a900473ffffffffffffffffffffffffffffffffffffffff166119d3565b145b1561271c5761271a60006119de565b505b606660009054906101000a900473ffffffffffffffffffffffffffffffffffffffff1673ffffffffffffffffffffffffffffffffffffffff166338cc48316040518163ffffffff1660e01b8152600401602060405180830381600087803b15801561278657600080fd5b505af115801561279a573d6000803e3d6000fd5b505050506040513d60208110156127b057600080fd5b810190808051906020019092919050505073ffffffffffffffffffffffffffffffffffffffff16606560009054906101000a900473ffffffffffffffffffffffffffffffffffffffff1673ffffffffffffffffffffffffffffffffffffffff16146128fb57606660009054906101000a900473ffffffffffffffffffffffffffffffffffffffff1673ffffffffffffffffffffffffffffffffffffffff166338cc48316040518163ffffffff1660e01b8152600401602060405180830381600087803b15801561287f57600080fd5b505af1158015612893573d6000803e3d6000fd5b505050506040513d60208110156128a957600080fd5b8101908080519060200190929190505050606560006101000a81548173ffffffffffffffffffffffffffffffffffffffff021916908373ffffffffffffffffffffffffffffffffffffffff1602179055505b6000606560009054906101000a900473ffffffffffffffffffffffffffffffffffffffff1673ffffffffffffffffffffffffffffffffffffffff16632ef3accc86856040518363ffffffff1660e01b81526004018080602001838152602001828103825284818151815260200191508051906020019080838360005b83811015612992578082015181840152602081019050612977565b50505050905090810190601f1680156129bf5780820380516001836020036101000a031916815260200191505b509350505050602060405180830381600087803b1580156129df57600080fd5b505af11580156129f3573d6000803e3d6000fd5b505050506040513d6020811015612a0957600080fd5b81019080805190602001909291905050509050823a02670de0b6b3a764000001811115612a3c576000801b915050612be2565b6060612a4785612c03565b9050606560009054906101000a900473ffffffffffffffffffffffffffffffffffffffff1673ffffffffffffffffffffffffffffffffffffffff1663c55c1cb68360008985896040518663ffffffff1660e01b8152600401808581526020018060200180602001848152602001838103835286818151815260200191508051906020019080838360005b83811015612aec578082015181840152602081019050612ad1565b50505050905090810190601f168015612b195780820380516001836020036101000a031916815260200191505b50838103825285818151815260200191508051906020019080838360005b83811015612b52578082015181840152602081019050612b37565b50505050905090810190601f168015612b7f5780820380516001836020036101000a031916815260200191505b5096505050505050506020604051808303818588803b158015612ba157600080fd5b505af1158015612bb5573d6000803e3d6000fd5b50505050506040513d6020811015612bcc57600080fd5b8101908080519060200190929190505050925050505b9392505050565b8060679080519060200190612bff929190613030565b5050565b6060612c0d612c80565b612c156130b0565b612c2181610400612c8c565b612c2a81612cd6565b60005b8351811015612c6957612c5c848281518110612c4557fe5b602002602001015183612ce490919063ffffffff16565b8080600101915050612c2d565b50612c7381612d09565b8060000151915050919050565b60405180590338823950565b6000819050600060208281612c9d57fe5b0614612cb65760208181612cad57fe5b06602003810190505b808360200181815250506040518084526000815281810160405250505050565b612ce1816004612d17565b50565b612cf18260028351612d38565b612d048183612e7890919063ffffffff16565b505050565b612d14816007612d17565b50565b612d34601f60058360ff16901b1783612f2390919063ffffffff16565b5050565b60178111612d6457612d5f8160058460ff16901b60ff161784612f2390919063ffffffff16565b612e73565b60ff8111612da557612d89601860058460ff16901b1784612f2390919063ffffffff16565b612d9f81600185612f639092919063ffffffff16565b50612e72565b61ffff8111612de757612dcb601960058460ff16901b1784612f2390919063ffffffff16565b612de181600285612f639092919063ffffffff16565b50612e71565b63ffffffff8111612e2b57612e0f601a60058460ff16901b1784612f2390919063ffffffff16565b612e2581600485612f639092919063ffffffff16565b50612e70565b67ffffffffffffffff8111612e6f57612e57601b60058460ff16901b1784612f2390919063ffffffff16565b612e6d81600885612f639092919063ffffffff16565b505b5b5b5b5b505050565b612e806130b0565b82602001518360000151518351011115612eb057612eaf836002612ea986602001518651612fca565b02612fe6565b5b60008060008451905085518051602081830101945086518101825260208701935050505b60208110612ef75781518352602083019250602082019150602081039050612ed4565b60006001826020036101000a039050801983511681855116818117865250508694505050505092915050565b81602001516001836000015151011115612f4957612f48826002846020015102612fe6565b5b815180516020818301018381536001820183525050505050565b612f6b6130b0565b836020015184600001515183011115612f9957612f98846002612f92876020015186612fca565b02612fe6565b5b60006001836101000a0390508451805184818301018684198251161781528582018352505050849150509392505050565b600081831115612fdc57829050612fe0565b8190505b92915050565b606082600001519050612ff98383612c8c565b6130038382612e78565b50505050565b60405180608001604052806004905b60608152602001906001900390816130185790505090565b828054600181600116156101000203166002900490600052602060002090601f016020900481019282601f1061307157805160ff191683800117855561309f565b8280016001018555821561309f579182015b8281111561309e578251825591602001919060010190613083565b5b5090506130ac91906130ca565b5090565b604051806040016040528060608152602001600081525090565b5b808211156130e35760008160009055506001016130cb565b509056fe496e697469616c697a61626c653a20636f6e747261637420697320616c726561647920696e697469616c697a65644e6f7420656e6f7567682065746820666f72204f7261636c652051756572792067617320616e642067616d65a2646970667358221220603289eb45f42854dda88c6c69597c41acd727434fa90f2f896b0876f000f78464736f6c63430007000033",
  "immutableReferences": {},
  "source": "//SPDX-License-Identifier: MIT\r\n//Following Open Zeppelins' solc version control - hopefully the code works.\r\n//Let's go with solc 0.8.0 in the compile to try and optimize longevity.\r\npragma solidity >=0.7.0;\r\n\r\n//Trying to follow along with Open Zeppelin's docs\r\n\r\n// to do: put in Open-Zeppelin libraries for:\r\n// pause functionality (Pausable)\r\n// initialize functionality (Initializable)\r\n// proxy admin?\r\n// is there an admin?\r\n\r\n//import \"@openzeppelin/upgrades/contracts/Initializable.sol\";\r\n//import \"@openzeppelin/contracts-upgradeable/proxy/initializable.sol\";\r\nimport \"@openzeppelin/contracts-upgradeable/utils/pausableupgradeable.sol\";\r\n\r\nimport \"./provableAPI_0.6.sol\";\r\n\r\ncontract DogDiceDAOGame is Initializable, PausableUpgradeable, usingProvable {\r\n\r\n    //pattern  as per \r\n    //@filipmartinsson/Smart-Contract-Security/blob/master/Upgradeable-Advanced/contracts/Storage.sol\r\n\r\n    mapping (string => uint256) _uintMapping;\r\n    mapping (string => address ) _addressMapping;\r\n    mapping (string => bool ) _boolMapping;\r\n    mapping (string => string) _stringMapping;\r\n    mapping (string => bytes32 ) _bytesMapping;\r\n    mapping (address => uint256) _balanceMapping;\r\n    \r\n    //The below was the intended implementation but apparently structs have issues\r\n    //(OpenZeppelin spittiing out ominous error messages re upgradeable contract memory).\r\n    // struct Match {\r\n    //     bool finished;\r\n    //     bytes32 id;\r\n    //     address player;\r\n    //     uint256 staked_amount;\r\n    //     bool won;\r\n    // }\r\n    // mapping (bytes32 => Match) _matchMapping;\r\n    \r\n    //So let's explode the mapping instead:\r\n\r\n    mapping (bytes32 => bool) _matchFinishedMapping;\r\n    mapping (bytes32 => address) _matchPlayerMapping;\r\n    mapping (bytes32 => uint256) _matchStakeMapping;\r\n    mapping (bytes32 => bool) _matchWonMapping;\r\n\r\n    //address  owner;\r\n\r\n    function initialize() public initializer {\r\n        // Depending on how the OpenZeppelin deployment works the below\r\n        // is to be removed or reinstated.\r\n        //owner = msg.sender;\r\n        _addressMapping[\"initializer\"] = msg.sender;\r\n        _uintMapping[\"latestRandomNumber\"] = 0;\r\n        _uintMapping[\"previousRandomNumber\"] = 0;\r\n        _uintMapping[\"MAX_INT_FROM_BYTE\"] = 256;\r\n        _uintMapping[\"NUM_RANDOM_BYTES_REQUESTED\"] = 1;\r\n\r\n    }\r\n\r\n    // Functions this game contract should have:\r\n    // 1)Random function call routine.\r\n    // 2)Check whether a game resulted in a win or loss.\r\n    // 3)In the future, this will be upgradeable to specifically check if one of two\r\n    //  players won or lost so the code must reflect this forward-compatiility.\r\n    // 4)Store user accounts and associated balances.\r\n    // 5)Store user accounts and any associated tokens.\r\n    // 6)Store user accounts and any associated NFTs.\r\n    // 7)Get user accounts and associated balances.\r\n    // 8)Get user accounts and any associated tokens.\r\n    // 9)Get user accounts and any associated NFTs.\r\n    // 10)Associated indexed events.\r\n    // 11)Governance contract can be a contract upgrade or an entirely different contract.\r\n\r\n    // 1)Random function call routine.\r\n    // -Implementation will use Provable Things as per Filip's tutorial in Ivan's Academy:\r\n    //https://github.com/filipmartinsson/solidity-201/blob/master/oracle-contract/contract.sol\r\n    \r\n    // _uintMapping[\"MAX_INT_FROM_BYTE\"] = 256;\r\n    // _uintMapping[\"NUM_RANDOM_BYTES_REQUESTED\"] = 1;\r\n    // _uintMapping[\"previousRandomNumber\"] = 0;\r\n    // _uintMapping[\"latestRandomNumber\"] = 0;\r\n    // _uintMapping[\"randomNumberCeiling\"] = 2;//initializer is handling these\r\n    \r\n    //the following events are borrowed from  lohba/Coin-Flip-Dapp-v2 on Github:\r\n    event LogNewProvableQuery(string description);\r\n    event generatedRandomNumber(uint256 randomNumber);\r\n    event resultOutcome(address player, bool won, uint256 playerBalance);\r\n    \r\n\r\n    function __callback(bytes32 _queryId, string memory _result, bytes memory _proof) public override\r\n    {\r\n        require(msg.sender == provable_cbAddress());\r\n\r\n        _uintMapping[\"previousRandomNumber\"] = _uintMapping[\"latestRandomNumber\"];\r\n        _uintMapping[\"latestRandomNumber\"] = uint256(keccak256(abi.encodePacked(_result)))\r\n                                                % _uintMapping[\"randomNumberCeiling\"];\r\n        emit generatedRandomNumber( _uintMapping[\"latestRandomNumber\"]);\r\n        processGameResult(_uintMapping[\"latestRandomNumber\"], _queryId);\r\n                                            \r\n    }\r\n    \r\n    function updateRandomNumber(address _player, uint256 _stake) payable public\r\n    {\r\n        _uintMapping[\"QUERY_EXECUTION_DELAY\"] = 0;\r\n        _uintMapping[\"GAS_FOR_CALLBACK \"] = 200000;\r\n        bytes32 _id = provable_newRandomDSQuery(\r\n                                    _uintMapping[\"QUERY_EXECUTION_DELAY\"],\r\n                                    _uintMapping[\"NUM_RANDOM_BYTES_REQUESTED\"],\r\n                                    _uintMapping[\"GAS_FOR_CALLBACK \"]\r\n                                );\r\n        // _matchMapping[_id].id = _id;\r\n        // _matchMapping[_id].player = _player;\r\n        // _matchMapping[_id].staked_amount = _stake;\r\n        // _matchMapping[_id].won = false;\r\n        // _matchMapping[_id].finished = false;\r\n        _matchPlayerMapping[_id] = _player;\r\n        _matchStakeMapping[_id] = _stake;\r\n        _matchWonMapping[_id] = false;\r\n        _matchFinishedMapping[_id] = false;\r\n        \r\n        emit LogNewProvableQuery(\"Provable Query sent...\");\r\n\r\n    }\r\n    \r\n    \r\n    // 2)Check whether a game resulted in a win or loss.\r\n    \r\n    function playGame(uint256 _stake) public payable\r\n    {\r\n        require(_stake <= _balanceMapping[msg.sender], \"Insufficient balance!\");\r\n        _balanceMapping[msg.sender] -= _stake;\r\n        _stake += msg.value; \r\n        _stake -= _uintMapping[\"GAS_FOR_CALLBACK \"];\r\n        require( _stake > 0, \"Not enough eth for Oracle Query gas and game\" );\r\n        updateRandomNumber(msg.sender, _stake); //Assuming that the gas is simply drawn from the contract address.\r\n    }\r\n\r\n    function processGameResult(uint256 _numberReceived, bytes32 _gameId) private\r\n    {\r\n        _matchFinishedMapping[_gameId] = true;\r\n        bool won = checkWinCondition(_numberReceived);\r\n        if (won && _matchFinishedMapping[_gameId])\r\n        {\r\n            _matchWonMapping[_gameId] = true;\r\n            _balanceMapping[_matchPlayerMapping[_gameId]] +=\r\n                            _matchStakeMapping[_gameId];   \r\n        }\r\n    }\r\n\r\n    function checkWinCondition(uint256 _numberReceived) private pure returns (bool) \r\n    {   \r\n        bool result = _numberReceived % 2 == 1;\r\n        return result;\r\n    }\r\n\r\n    // 3)In the future, this will be upgradeable to specifically check if one of two\r\n    //  players won or lost so the code must reflect this forward-compatiility.\r\n    //  -Here there just needs to be further workings on sockets, concurrency etc to prevent\r\n    //   too random number calls for one multiplayer game.\r\n\r\n    // 4)Store user accounts and associated balances.\r\n    // 5)Store user accounts and any associated tokens.\r\n    // 6)Store user accounts and any associated NFTs.\r\n\r\n    // Initial implementation: simple deposit to user balance, all txns in Eth.\r\n\r\n    function depositEth () public payable\r\n    {\r\n        require(msg.value>0, \"Non-zero deposit needed.\");\r\n        _balanceMapping[msg.sender] += msg.value;\r\n    }\r\n\r\n    function withdrawEth (uint256 _withdrawalAmount) public\r\n    {\r\n        _balanceMapping[msg.sender] -= _withdrawalAmount;\r\n        msg.sender.transfer( _withdrawalAmount) ;\r\n    }\r\n\r\n\r\n    // 7)Get user accounts and associated balances.\r\n    // 8)Get user accounts and any associated tokens.\r\n    // 9)Get user accounts and any associated NFTs.\r\n\r\n    // Initial implementation: deposits and balances only in Eth.\r\n\r\n    function getBalance() public view returns (uint256)\r\n    {\r\n        return _balanceMapping[msg.sender];\r\n    }\r\n\r\n    //Further considerations:\r\n    // 10)Associated indexed events.\r\n    // 11)Governance contract can be a contract upgrade or an entirely different contract.\r\n\r\n\r\n\r\n\r\n\r\n\r\n\r\n\r\n\r\n\r\n\r\n\r\n}\r\n\r\n\r\n\r\n",
  "sourcePath": "C:/Users/rajas/Desktop/Blockchain/Dog Dice DAO/website/smart-contracts/contracts/UpgradableContract.sol",
  "compiler": {
    "name": "solc",
    "version": "0.7.0+commit.9e61f92b.Emscripten.clang"
  },
  "schemaVersion": "3.3.3",
  "updatedAt": "2021-01-04T12:37:49.247Z",
  "networkType": "ethereum",
  "devdoc": {
    "kind": "dev",
    "methods": {
      "__callback(bytes32,string)": {
        "details": "The following `__callback` functions are just placeholders ideally      meant to be defined in child contract when proofs are used.      The function bodies simply silence compiler warnings."
      },
      "paused()": {
        "details": "Returns true if the contract is paused, and false otherwise."
      }
    },
    "version": 1
  },
  "userdoc": {
    "kind": "user",
    "methods": {},
    "version": 1
  }
}